:020000040800F2
:10000000700600209D0100080F0E00080D0E00086C
:1000100000000000000000000000000000000000E0
:10002000000000000000000000000000130E0008A7
:100030000000000000000000110E0008150E00086E
:10004000AF010008AF010008AF010008AF010008D0
:10005000AF010008AF010008AF010008AF010008C0
:10006000AF010008AF010008AF010008AF010008B0
:10007000AF010008AF010008AF010008AF010008A0
:10008000AF010008AF010008AF010008AF01000890
:10009000AF010008AF010008AF010008AF01000880
:1000A000AF010008AF010008AF010008AF01000870
:1000B000AF010008AF010008AF010008AF01000860
:1000C00000F002F800F03EF80CA030C80838241800
:1000D0002D18A246671EAB4654465D46AC4201D180
:1000E00000F030F87E460F3E0FCCB6460126334274
:1000F00000D0FB1AA246AB46334318478C0F0000D2
:10010000AC0F0000103A02D378C878C1FAD8520771
:1001100001D330C830C101D504680C6070470000BD
:100120000023002400250026103A01D378C1FBD813
:10013000520700D330C100D50B6070471FB51FBDFB
:1001400010B510BD00F097F91146FFF7F7FF00F06A
:10015000DFFE00F0AFF903B4FFF7F2FF03BC00F0DD
:10016000B5F9000070B505460C46164602E00FCC06
:100170000FC5103E102EFAD2082E02D303CC03C5B1
:10018000083E042E07D301CC01C5361F03E02178B9
:100190002970641C6D1C761EF9D270BD074880471B
:1001A00007480047FEE7FEE7FEE7FEE7FEE7FEE75B
:1001B00004480549054A064B70470000990E00089F
:1001C000C1000008700000207006002070020020AE
:1001D00070020020FEB5054610460C46184373D049
:1001E000AE468C460020AD1A01469C4167D3664658
:1001F000002701243D46B61A9D4102D313463A46D4
:100200002124654676462F04360C3E432D0CB61A43
:100210009D4104D3150C1B042B4312041034654676
:1002200076462F06360A3E432D0AB61A9D4104D360
:10023000150E1B022B4312020834654676462F0723
:1002400036093E432D09B61A9D4104D3150F1B01F3
:100250002B431201241D65467646AF07B6083E4380
:10026000AD08B61A9D4104D3950F9B002B43920015
:10027000A41C65467646EF0776083E436D08B61A1D
:100280009D411AD392185B41641C16E00018764613
:1002900065464941B71A9D410191009009D36046D6
:1002A000B11A98418E468446009801990025401C59
:1002B0006941DD0752082A435B08641EE6D5724691
:1002C000634603B0F0BDFFE700200146C046C046CC
:1002D0002A462346F5E701E004C0091F0429FBD2A2
:1002E0008B0701D50280801CC90700D002707047BF
:1002F00000290BD0C30702D00270401C491E0229FE
:1003000004D3830702D50280801C891EE3E7002204
:10031000EEE70022DFE7002203098B422CD3030A19
:100320008B4211D300239C464EE003460B433CD442
:10033000002243088B4231D303098B421CD3030AAA
:100340008B4201D394463FE0C3098B4201D3CB01DA
:10035000C01A524183098B4201D38B01C01A52410A
:1003600043098B4201D34B01C01A524103098B420E
:1003700001D30B01C01A5241C3088B4201D3CB00F9
:10038000C01A524183088B4201D38B00C01A5241DC
:1003900043088B4201D34B00C01A5241411A00D28C
:1003A00001465241104670475DE0CA0F00D04942F5
:1003B000031000D34042534000229C4603098B4265
:1003C0002DD3030A8B4212D3FC22890112BA030AED
:1003D0008B420CD3890192118B4208D3890192116F
:1003E0008B4204D389013AD0921100E08909C309F4
:1003F0008B4201D3CB01C01A524183098B4201D3F6
:100400008B01C01A524143098B4201D34B01C01AE0
:10041000524103098B4201D30B01C01A5241C30858
:100420008B4201D3CB00C01A524183088B4201D3C7
:100430008B00C01A5241D9D243088B4201D34B00E2
:10044000C01A5241411A00D20146634652415B1024
:10045000104601D34042002B00D549427047634605
:100460005B1000D3404201B50020C046C04602BD2B
:10047000704770477047754600F024F8AE46050097
:1004800069465346C008C000854618B020B5FFF73E
:100490008FFE60BC00274908B6460026C0C5C0C50F
:1004A000C0C5C0C5C0C5C0C5C0C5C0C5403D490068
:1004B0008D46704710B50446C046C0462046FFF73B
:1004C0004AFE10BD00487047100000200149182066
:1004D000ABBEFEE72600020070470000F8B500231F
:1004E00003240125BFE02E469E40B44632407CD016
:1004F0000E79B607B60F012E01D0022E17D18668ED
:100500002746B6465E00B74000967646BE43B646DE
:10051000CF68009EB7407646374387604668674697
:10052000BE430F79FF06FF0F9F40374347600E79A8
:10053000F643B6070ED0C6682746B4465E00B646F8
:10054000B7406646BE43B4468F687646B7406646B7
:100550003743C7600E79B607B60F022E14D1DE08F6
:10056000B60036180096366A5F07B446FE0E0F27AF
:10057000B646B7406646BE43B4460F697646B740B6
:1005800066463743009E376206682746B4465E00DB
:10059000B646B7406646BE430F79B446BF07BF0FA5
:1005A0007646B7406646374307604E68B603B60FD7
:1005B00058D0304FBE692E43BE61BE699F08F60712
:1005C000F60F2D4EBF00BE190096B6680F27B44631
:1005D0009E07360FB646B7406646BE430927FF065C
:1005E000B446B84202D1002715E03BE0234FB842A1
:1005F00001D101270FE0224FB84201D102270AE0C2
:10060000204FB84201D1032705E01F4FB84201D166
:10061000042700E005277646B74066463743009E2C
:10062000B7601A4EB6684F689643FF0200D516436E
:10063000164FBE60FE684F689643BF0200D5164352
:10064000124FFE607E684F689643BF0300D5164385
:100650000E4F7E603E684F689643FF0300D51643F9
:100660000A4A16605B1C0A681646DE4000D03AE76C
:10067000F8BD0000001002400000014000040048E6
:1006800000080048000C0048001000480004014029
:10069000014880687047000000000020024881681F
:1006A00002788918816070470000002010B5064864
:1006B0000168102211430160002000F007F800F0EB
:1006C00027F8002010BD00000020024070B504464D
:1006D0000D4D7D202978C000FFF71DFE01460B4817
:1006E0000068FFF718FE00F079FB002809D1042C00
:1006F00007D200222146401E00F01EF800206C6048
:1007000070BD012070BD0000000000200C00002022
:1007100008B508488169012211438161816911404E
:100720000091C26901040A43C261C0690840009097
:1007300008BD00000010024010B500F0C7FB10BD5E
:10074000F8B504460068434DC00352D5E869002659
:10075000C00007D4E96928040143E961E96901405F
:10076000012600913C480168C90510D40168821532
:1007700011430160FFF78CFF074604E0FFF788FF95
:10078000C01B642824D834480068C005F6D5286A00
:1007900003273F02384020D06168394081421CD095
:1007A000286A2A6AB843012109040A432A622A6A8C
:1007B0008A432A622862C0070FD0FFF769FF0090C2
:1007C00008E0FFF765FF0099411A2448814201D9EA
:1007D0000320F8BD286A8007F3D5286A6168B8430A
:1007E00008432862002E04D0E869012109078843E4
:1007F000E8612078C00705D0286BA16880088000D8
:10080000084328632078800706D5286B0321090454
:100810008843E168084328632078800605D5286B63
:10082000102188432169084328632068800305D587
:10083000286B80218843A1690843286320884005EC
:1008400005D5286B4021884361690843286300204F
:10085000F8BD000000100240007000408813000046
:10086000F8B50F4606005ED03C4D2868C007C00FA3
:10087000B84209D2286840084000384328602868F8
:10088000C007C00FB8424ED13068354C81070CD537
:10089000400704D56068072109020843606060686A
:1008A000F0218843B168084360603078C0072BD0DE
:1008B0007068012810D0022810D0032811D02168B8
:1008C000890700292FDA616889088900014361607E
:1008D000FFF7DEFE009010E0216803E02168890147
:1008E000EFE7616B8903ECE7FFF7D2FE0099411A4D
:1008F0001C48814201D90320F8BD60680C210840E2
:10090000716889008842EFD12868C007C00FB842DB
:100910000BD9286840084000384328602868C00781
:10092000C00FB84201D00120F8BD3078400706D58D
:100930006068072109028843F1680843606000F09D
:1009400017F86168084A0906090F515CC840074951
:1009500008600020FFF7BAFE0020F8BD002002402A
:100960000010024088130000781000080C000020DE
:1009700070B5154A51680C200B4603401348042BF0
:1009800005D0134D082B03D00C2B00D1284670BD89
:100990008B02104C1B0FE45CD26A0E4B1207120F35
:1009A0001033C9039A5C890F022901D0032901D0B1
:1009B000002301E0002328460021FFF70BFC21461D
:1009C00000F06BFA70BD00000010024000127A00C7
:1009D000006CDC0258100008FEB5040070D02078CE
:1009E000F94EFA4DC00748D068680007800F01280B
:1009F0001FD068680007800F022804D16868C00310
:100A0000800F022815D06168012919D001208004C7
:100A1000002901D0052917D02968B1432960296828
:100A200081432960606800281BD0FFF731FE07462C
:100A300013E02868800320D560680028CED01CE031
:100A4000286830432860EDE7296801432960F7E70B
:100A5000FFF71EFEC01B642870D828688003F7D5F6
:100A60000BE0FFF715FE074604E0FFF711FEC01B81
:100A70006428F1D828688003F7D4207880073FD510
:100A800068680007800F14D068680007800F02288C
:100A900004D16868C003800F01280AD0E0680028EC
:100AA00028681ED0012108432860FFF7F1FD0746A2
:100AB0000CE0286880070CD5E068012800D108E028
:100AC00080E1FFF7E5FDC01B0228C5D82868800734
:100AD000F7D52868F82188432169C90008432860B0
:100AE0000EE0400840002860FFF7D2FD074604E012
:100AF000FFF7CEFDC01B0228AED828688007F7D4C8
:100B00002078000723D5E0690028686A0FD001210A
:100B100008436862FFF7BCFD074604E0FFF7B8FD35
:100B2000C01B022898D8686A8007F7D50FE04008F4
:100B300040006862FFF7ACFD074605E0C3E0FFF741
:100B4000A7FDC01B022887D8686A8007F7D42078E1
:100B500004274007002861DA00200190E869C000FE
:100B600008D4E969B8060143E961E9690140012057
:100B70000091019096480168C90511D40168821559
:100B800011430160FFF784FD009005E0FFF780FD51
:100B90000099401A642898D88D480068C005F5D59A
:100BA000A06801280AD0002801D0052811D0286AA1
:100BB000400840002862286AB84302E0286A012100
:100BC00008432862A068002812D0FFF761FD00905A
:100BD0000AE0286A38432862F0E7FFF759FD0099D8
:100BE000411A7C4881426ED8286A8007F5D50DE00D
:100BF000FFF74EFD009006E0FFF74AFD0099411A0D
:100C0000744881425FD8286A8007F5D4019800288B
:100C100004D0E969012000078143E9612078C0061A
:100C200035D5606901280CD0401D686B24D038434D
:100C30006863686B400840006863FFF729FD07465A
:100C400022E0686B38436863686B0121084368637E
:100C5000FFF71EFD074604E0FFF71AFDC01B022840
:100C600031D8686B8007F7D5686BF8218843A16994
:100C7000C900084368630AE0B8436863F4E7FFF714
:100C800007FDC01B02281ED8686B8007F7D42078A8
:100C9000800637D568680007800F032814D068687D
:100CA0000007800F022804D16868C003800F032862
:100CB0000AD0206A0028686B16D030436863FFF7BB
:100CC000E7FC06460CE062E0686B80031AD5206AF8
:100CD000012877D116E0FFF7DBFC801B022856D8ED
:100CE000686B8003F7D50DE0B0436863FFF7D0FC75
:100CF000064604E0FFF7CCFC801B022847D8686B4F
:100D00008003F7D4606A002866D069680907890FF4
:100D1000022942D0012636060228286805D0B043B1
:100D20002860FFF7B5FC044633E0B0432860FFF7C6
:100D3000AFFC074604E0FFF7ABFCC01B022826D837
:100D400028688001F7D4E86A216B00090001084394
:100D5000E862A16AE06A084369687B22D203914392
:100D600008436860286830432860FFF791FC044618
:100D700004E0FFF78DFC001B022808D828688001DA
:100D8000F7D529E0FFF784FC001B022801D90320D6
:100D9000FEBD28688001F5D41EE00128F8D06868FF
:100DA000E96A0322D203A36A02409A420AD10907E0
:100DB000226B090F914205D10F2189040840E16A95
:100DC000884209D00120FEBD000001000010024051
:100DD00000700040881300000020F4E7094910B5B6
:100DE000401E884201D9012010BD074C60610321DB
:100DF000081F00F06BF80020A06107202061002090
:100E000010BD0000FFFFFF0000E000E0FEE7FEE78E
:100E10007047704710B5FFF741FC10BD30B599B071
:100E200034216846FFF775FA00240D940E940F9450
:100E30001C2111A81094FFF76CFA222000900120C9
:100E4000039008900225102009950490C0020A9092
:100E500040010B900C946846FFF7BEFD002801D0BE
:100E600072B6FEE707200D900F9401210E951094A5
:100E70000DA8FFF7F5FC002801D072B6FEE70120AF
:100E800040041190179411A8FFF75AFC002801D0D4
:100E900072B6FEE719B030BD7047F8B5040C8BB2DE
:100EA000264682B25E430D0C1046370C584336047A
:100EB00080190021794116466E43370C360480199B
:100EC000794126466E438919F8BD00008307FF2249
:100ED000DB0E9A408907090E9940002808DB830839
:100EE00009489B001B181868904308431860704716
:100EF0000007000F0838830804489B001B18D869B6
:100F000090430843D861704700E400E000ED00E042
:100F1000F0B58BB0FFF7CAFBFFF780FF404841698F
:100F20000122D20411434161816945152943816140
:100F300014223C496846FFF715F93B4C69462046A8
:100F4000FFF7CCFA37491422143105A8FFF70AF944
:100F500005A92046FFF7C2FA3449C8684A1410436D
:100F6000C860C868CA149043C860CA68081582433C
:100F7000CA60CA6810231A43CA60CA6808239A4321
:100F8000CA608A6A02438A628868C00703D0886898
:100F90000222104388608868C007FCD1C8684008F6
:100FA0004000C86088680122D207104388608868C2
:100FB0000028FCDB0868C00703D008684008400030
:100FC0000860886801221043886020267823A022C8
:100FD000DC201DE0154940310968C9B2B14203DD8A
:100FE000656940273D436561994204DD6569FF27D6
:100FF00001373D436561914203DD656980273D43CB
:101000006561814204DD6569012149020D43656125
:1010100006490968C907DDD000200BB0F0BD00000B
:101020000010024030100008000800480024014071
:10103000C0030000010000000000000000000000EC
:10104000000000000100000003000000000000009C
:101050000000000000000000020304050607080964
:101060000A0B0C0D0E0F10100102030405060708F1
:10107000090A0B0C0D0E0F1000000000000000000C
:101080000102030406070809A81000080000002058
:101090001000000004010008B81000081000002033
:1010A00060060000200100080100000004000000AC
:0810B0000000000000127A00AC
:04000005080000C12E
:00000001FF
