:020000040800F2
:10000000600A00209D0100083516000865130008ED
:1000100000000000000000000000000000000000E0
:100020000000000000000000000000003916000879
:100030000000000000000000371600083B16000812
:10004000AF010008AF010008AF010008AF010008D0
:10005000AF010008AF010008AF010008AF010008C0
:10006000AF010008AF010008AF010008AF010008B0
:10007000AF010008AF010008AF010008AF010008A0
:10008000AF010008AF010008AF010008AF01000890
:10009000AF010008AF010008AF010008AF01000880
:1000A000AF010008AF010008AF010008AF01000870
:1000B000AF010008AF010008AF010008AF01000860
:1000C00000F002F800F03EF80CA030C80838241800
:1000D0002D18A246671EAB4654465D46AC4201D180
:1000E00000F030F87E460F3E0FCCB6460126334274
:1000F00000D0FB1AA246AB4633431847A8190000AC
:10010000C8190000103A02D378C878C1FAD852074B
:1001100001D330C830C101D504680C6070470000BD
:100120000023002400250026103A01D378C1FBD813
:10013000520700D330C100D50B6070471FB51FBDFB
:1001400010B510BD00F097F91146FFF7F7FF01F069
:1001500017FB00F0AFF903B4FFF7F2FF03BC00F0A8
:10016000B5F9000070B505460C46164602E00FCC06
:100170000FC5103E102EFAD2082E02D303CC03C5B1
:10018000083E042E07D301CC01C5361F03E02178B9
:100190002970641C6D1C761EF9D270BD074880471B
:1001A00007480047FEE7FEE7FEE7FEE7FEE7FEE75B
:1001B00004480549054A064B70470000BF16000871
:1001C000C100000860040020600A002060060020D2
:1001D00060060020FEB5054610460C46184373D055
:1001E000AE468C460020AD1A01469C4167D3664658
:1001F000002701243D46B61A9D4102D313463A46D4
:100200002124654676462F04360C3E432D0CB61A43
:100210009D4104D3150C1B042B4312041034654676
:1002200076462F06360A3E432D0AB61A9D4104D360
:10023000150E1B022B4312020834654676462F0723
:1002400036093E432D09B61A9D4104D3150F1B01F3
:100250002B431201241D65467646AF07B6083E4380
:10026000AD08B61A9D4104D3950F9B002B43920015
:10027000A41C65467646EF0776083E436D08B61A1D
:100280009D411AD392185B41641C16E00018764613
:1002900065464941B71A9D410191009009D36046D6
:1002A000B11A98418E468446009801990025401C59
:1002B0006941DD0752082A435B08641EE6D5724691
:1002C000634603B0F0BDFFE700200146C046C046CC
:1002D0002A462346F5E701E004C0091F0429FBD2A2
:1002E0008B0701D50280801CC90700D002707047BF
:1002F00000290BD0C30702D00270401C491E0229FE
:1003000004D3830702D50280801C891EE3E7002204
:10031000EEE70022DFE7002203098B422CD3030A19
:100320008B4211D300239C464EE003460B433CD442
:10033000002243088B4231D303098B421CD3030AAA
:100340008B4201D394463FE0C3098B4201D3CB01DA
:10035000C01A524183098B4201D38B01C01A52410A
:1003600043098B4201D34B01C01A524103098B420E
:1003700001D30B01C01A5241C3088B4201D3CB00F9
:10038000C01A524183088B4201D38B00C01A5241DC
:1003900043088B4201D34B00C01A5241411A00D28C
:1003A00001465241104670475DE0CA0F00D04942F5
:1003B000031000D34042534000229C4603098B4265
:1003C0002DD3030A8B4212D3FC22890112BA030AED
:1003D0008B420CD3890192118B4208D3890192116F
:1003E0008B4204D389013AD0921100E08909C309F4
:1003F0008B4201D3CB01C01A524183098B4201D3F6
:100400008B01C01A524143098B4201D34B01C01AE0
:10041000524103098B4201D30B01C01A5241C30858
:100420008B4201D3CB00C01A524183088B4201D3C7
:100430008B00C01A5241D9D243088B4201D34B00E2
:10044000C01A5241411A00D20146634652415B1024
:10045000104601D34042002B00D549427047634605
:100460005B1000D3404201B50020C046C04602BD2B
:10047000704770477047754600F024F8AE46050097
:1004800069465346C008C000854618B020B5FFF73E
:100490008FFE60BC00274908B6460026C0C5C0C50F
:1004A000C0C5C0C5C0C5C0C5C0C5C0C5403D490068
:1004B0008D46704710B50446C046C0462046FFF73B
:1004C0004AFE10BD00487047000400200149182072
:1004D000ABBEFEE72600020070470000F8B500231F
:1004E00003240125BFE02E469E40B44632407CD016
:1004F0000E79B607B60F012E01D0022E17D18668ED
:100500002746B6465E00B74000967646BE43B646DE
:10051000CF68009EB7407646374387604668674697
:10052000BE430F79FF06FF0F9F40374347600E79A8
:10053000F643B6070ED0C6682746B4465E00B646F8
:10054000B7406646BE43B4468F687646B7406646B7
:100550003743C7600E79B607B60F022E14D1DE08F6
:10056000B60036180096366A5F07B446FE0E0F27AF
:10057000B646B7406646BE43B4460F697646B740B6
:1005800066463743009E376206682746B4465E00DB
:10059000B646B7406646BE430F79B446BF07BF0FA5
:1005A0007646B7406646374307604E68B603B60FD7
:1005B00058D0304FBE692E43BE61BE699F08F60712
:1005C000F60F2D4EBF00BE190096B6680F27B44631
:1005D0009E07360FB646B7406646BE430927FF065C
:1005E000B446B84202D1002715E03BE0234FB842A1
:1005F00001D101270FE0224FB84201D102270AE0C2
:10060000204FB84201D1032705E01F4FB84201D166
:10061000042700E005277646B74066463743009E2C
:10062000B7601A4EB6684F689643FF0200D516436E
:10063000164FBE60FE684F689643BF0200D5164352
:10064000124FFE607E684F689643BF0300D5164385
:100650000E4F7E603E684F689643FF0300D51643F9
:100660000A4A16605B1C0A681646DE4000D03AE76C
:10067000F8BD0000001002400000014000040048E6
:1006800000080048000C0048001000480004014029
:10069000002A01D0816170478162704701488068FB
:1006A000704700000000002070B5024640325378C9
:1006B000202B1CD11378012B19D001231370242473
:1006C0005470046825689D432560046825681E03EE
:1006D000B5432560046825680D43256000680168FE
:1006E00019430160202050700020107070BD02205E
:1006F00070BD70B5024640325378202B1BD1137861
:10070000012B18D0012414702423537003681D6832
:10071000A5431D6005682B680F263602B343090206
:10072000194329600068016821430160202050704E
:100730000020107070BD022070BD000070B5040074
:1007400006D02546403568780026002802D005E00E
:10075000012070BD2E70204600F04AF824206870F9
:10076000206801684908490001600F216068090696
:1007700088432168086121688A680120C003824398
:100780008A60E1680129A16808D021229202114300
:1007900022689160E168022902D005E00143F7E791
:1007A00001212268C902516021684A680F4B1A432F
:1007B0004A602168CA688243CA6061692069084347
:1007C000A169090208432168C860216AE0690843F9
:1007D0002168086020680168012211430160666495
:1007E000202068702663AE70002070BD008000027B
:1007F00010B586B0044614216846FFF78AFD1249F9
:10080000206888421ED1114C616901208004014397
:10081000616161690140059103208002009012200E
:100820000121019003200291049103906946084838
:10083000FFF754FEE169012080050143E161E169B0
:100840000140059106B010BD005800400010024064
:100850000004004802488168027889188160704766
:100860000000002010B50648016810221143016005
:10087000002000F007F800F027F8002010BD00006D
:100880000020024070B504460D4D7D202978C0003F
:10089000FFF741FD01460B480068FFF73CFD00F003
:1008A000A1FC002809D1042C07D200222146401EB9
:1008B00000F01EF800206C6070BD012070BD0000CB
:1008C000000000200C00002008B5084881690122C2
:1008D00011438161816911400091C26901040A4399
:1008E000C261C0690840009008BD000000100240CD
:1008F00010B500F023FF10BD10B50523DB01C318B0
:100900000168012217249A6664010023001903700C
:100910004031888A10438882888A02221043888264
:10092000184610BDF0B585B0040007D01520400171
:100930002618707A0025002803D006E0012005B0B3
:10094000F0BD3572204600F043F803207072206835
:1009500000F0D2FE002101270CE0282048430219B4
:100960001046203047720172C5729563D563491CE9
:10097000C9B2156460688842EFD8002210E02820D0
:10098000504300190146FF3161314D720A72CD7238
:100990006039FF3081308D67CD67521CD2B205605F
:1009A00060689042EBD82146142210316846FFF768
:1009B000D9FB0FCC103C00F095FE24200555777232
:1009C000E069012802D12046FFF796FF0020B6E734
:1009D00008B500680649884208D10648C269012165
:1009E000C9050A43C261C0690840009008BD000003
:1009F000005C004000100240F8B504460068434D1A
:100A0000C00352D5E8690026C00007D4E96928046C
:100A10000143E961E9690140012600913C48016810
:100A2000C90510D40168821511430160FFF736FE35
:100A3000074604E0FFF732FEC01B642824D8344880
:100A40000068C005F6D5286A03273F02384020D049
:100A50006168394081421CD0286A2A6AB843012162
:100A600009040A432A622A6A8A432A622862C00762
:100A70000FD0FFF713FE009008E0FFF70FFE00997C
:100A8000411A2448814201D90320F8BD286A800711
:100A9000F3D5286A6168B84308432862002E04D061
:100AA000E869012109078843E8612078C00705D07B
:100AB000286BA1688008800008432863207880079D
:100AC00006D5286B032109048843E168084328639D
:100AD0002078800605D5286B1021884321690843BA
:100AE00028632068800305D5286B80218843A1698D
:100AF000084328632088400505D5286B402188439A
:100B00006169084328630020F8BD0000001002401E
:100B10000070004088130000F8B50F4606005ED054
:100B20003C4D2868C007C00FB84209D22868400869
:100B30004000384328602868C007C00FB8424ED133
:100B40003068354C81070CD5400704D56068072113
:100B50000902084360606068F0218843B168084377
:100B600060603078C0072BD07068012810D0022850
:100B700010D0032811D02168890700292FDA616875
:100B80008908890001436160FFF788FD009010E04B
:100B9000216803E021688901EFE7616B8903ECE7D5
:100BA000FFF77CFD0099411A1C48814201D90320BE
:100BB000F8BD60680C210840716889008842EFD157
:100BC0002868C007C00FB8420BD928684008400009
:100BD000384328602868C007C00FB84201D0012000
:100BE000F8BD3078400706D56068072109028843C0
:100BF000F1680843606000F017F86168084A090668
:100C0000090F515CC840074908600020FFF73AFE11
:100C10000020F8BD002002400010024088130000B0
:100C2000941A00080C00002070B5154A51680C2079
:100C30000B4603401348042B05D0134D082B03D05B
:100C40000C2B00D1284670BD8B02104C1B0FE45CAE
:100C5000D26A0E4B1207120F1033C9039A5C890F28
:100C6000022901D0032901D0002301E000232846F6
:100C70000021FFF7AFFA214600F048FD70BD0000EB
:100C80000010024000127A00006CDC02741A0008A6
:100C9000FEB5040070D02078F94EFA4DC00748D058
:100CA00068680007800F01281FD068680007800F60
:100CB000022804D16868C003800F022815D061683B
:100CC000012919D001208004002901D0052917D05D
:100CD0002968B14329602968814329606068002838
:100CE0001BD0FFF7DBFC074613E02868800320D504
:100CF00060680028CED01CE0286830432860EDE70B
:100D0000296801432960F7E7FFF7C8FCC01B642886
:100D100070D828688003F7D50BE0FFF7BFFC0746C3
:100D200004E0FFF7BBFCC01B6428F1D828688003EF
:100D3000F7D4207880073FD568680007800F14D06B
:100D400068680007800F022804D16868C003800F1C
:100D500001280AD0E068002828681ED00121084335
:100D60002860FFF79BFC07460CE0286880070CD53D
:100D7000E068012800D108E080E1FFF78FFCC01B8C
:100D80000228C5D828688007F7D52868F821884345
:100D90002169C900084328600EE04008400028602F
:100DA000FFF77CFC074604E0FFF778FCC01B022835
:100DB000AED828688007F7D42078000723D5E069EB
:100DC0000028686A0FD0012108436862FFF766FCBB
:100DD000074604E0FFF762FCC01B022898D8686A47
:100DE0008007F7D50FE0400840006862FFF756FC27
:100DF000074605E0C3E0FFF751FCC01B022887D877
:100E0000686A8007F7D4207804274007002861DA51
:100E100000200190E869C00008D4E969B8060143E0
:100E2000E961E9690140012000910190964801685B
:100E3000C90511D40168821511430160FFF72EFC2A
:100E4000009005E0FFF72AFC0099401A642898D822
:100E50008D480068C005F5D5A06801280AD0002893
:100E600001D0052811D0286A400840002862286A6D
:100E7000B84302E0286A012108432862A0680028DC
:100E800012D0FFF70BFC00900AE0286A3843286272
:100E9000F0E7FFF703FC0099411A7C4881426ED8C5
:100EA000286A8007F5D50DE0FFF7F8FB009006E013
:100EB000FFF7F4FB0099411A744881425FD8286A11
:100EC0008007F5D40198002804D0E96901200007C3
:100ED0008143E9612078C00635D5606901280CD0CE
:100EE000401D686B24D038436863686B400840003D
:100EF0006863FFF7D3FB074622E0686B38436863FB
:100F0000686B012108436863FFF7C8FB074604E0EC
:100F1000FFF7C4FBC01B022831D8686B8007F7D5E8
:100F2000686BF8218843A169C900084368630AE037
:100F3000B8436863F4E7FFF7B1FBC01B02281ED873
:100F4000686B8007F7D42078800637D5686800077B
:100F5000800F032814D068680007800F022804D18E
:100F60006868C003800F03280AD0206A0028686BD5
:100F700016D030436863FFF791FB06460CE062E051
:100F8000686B80031AD5206A012877D116E0FFF735
:100F900085FB801B022856D8686B8003F7D50DE0CF
:100FA000B0436863FFF77AFB064604E0FFF776FB81
:100FB000801B022847D8686B8003F7D4606A00283A
:100FC00066D069680907890F022942D001263606D2
:100FD0000228286805D0B0432860FFF75FFB04466D
:100FE00033E0B0432860FFF759FB074604E0FFF702
:100FF00055FBC01B022826D828688001F7D4E86A70
:10100000216B000900010843E862A16AE06A084315
:1010100069687B22D20391430843686028683043A3
:101020002860FFF73BFB044604E0FFF737FB001B9B
:10103000022808D828688001F7D529E0FFF72EFBA1
:10104000001B022801D90320FEBD28688001F5D4C9
:101050001EE00128F8D06868E96A0322D203A36A77
:1010600002409A420AD10907226B090F914205D129
:101070000F2189040840E16A884209D00120FEBDA1
:1010800000000100001002400070004088130000C2
:101090000020F4E7F8B504000CD0606A00250028B1
:1010A0000AD02561656126464036A562707F00281A
:1010B00008D00BE00120F8BD6168C81FFD38F2D0F0
:1010C000E561F0E73577204600F05CF802227277A0
:1010D000206801684023994301600723E1681B02EF
:1010E000994201D9002001E0012000030F273F02AF
:1010F000B94202D0994200D0A562FF23616805334E
:1011000019402127A368BF023B40194323691340BC
:10111000227D1943D207D20F11430123A2695B023A
:101120001A401143E26938231A401143226A80238E
:101130001A401143A26A9B011A40114322681160B0
:10114000A1690422090C1140626A10231A4011435C
:10115000626B08231A4011430F23E2681B021A40F6
:1011600011430122120310400143206841602068AE
:10117000C16952109143C16125660120707700203A
:10118000F8BD000010B586B0044614216846FFF78C
:10119000C0F81149206888421CD11048C26909145E
:1011A0000A43C261C2690A400592426909010A43C1
:1011B00042614069084005900720400300900220EA
:1011C0000021019003200291049103906946044894
:1011D000FFF784F906B010BD00380040001002404F
:1011E00000040048094910B5401E884201D9012079
:1011F00010BD074C60610321081F00F09FFA00201A
:10120000A06107202061002010BD0000FFFFFF004B
:1012100000E000E070B5040005D025462035287FA9
:10122000002802D006E0012070BD0020687720462B
:1012300000F042F802202877206801260660A168A5
:101240006068228A08436169520411430843A16916
:101250000843E1690843616A0843A16A08432168B9
:101260000A6810430860207B012804D120680168C7
:10127000320411430160616B206B0843A16B08438A
:101280002168C0430861616B206B08432168886254
:101290002168A06B0862206B00F012FA21680863D5
:1012A00020684168890889004160216803208860BE
:1012B0002E77002070BD0000F0B587B004461421E1
:1012C0006846FFF726F824492068884242D123481F
:1012D0004269012109060A43426142690A400592B6
:1012E0004269C9110A43426142690A400592426952
:1012F00049000A43426140690024084005904420A7
:10130000009002260325092002946946019604955F
:101310000394C006FFF7E2F8882012270090029499
:101320006946019704950394B806FFF7D7F80120A2
:101330000090029469460196049503940848FFF7CB
:10134000CDF80294694606480197009604950394E7
:10135000FFF7C4F807B0F0BD0040024000100240A3
:1013600000040048FEE7000008B50E4988698207BE
:101370000D4812D58A695207920F0DD04A6A6B4602
:101380001A701A78D32A07D142694B151A43426161
:1013900048680A141043486008BD4169402211435F
:1013A000416108BD0058004000080048F0B53E48C3
:1013B0008169C90770D0826A01210A438262826A08
:1013C00002273A438262836A042293438362836AD8
:1013D000082293438362836A102213438362846AE0
:1013E00020239C438462856A402425438562866A63
:1013F00080252E43866286697607B60F4AD0016043
:1014000046680E4346604168B9434160466804211E
:101410008E434660416808263143416041689143EC
:10142000416041681943416041682143416041681E
:10143000A9434160426881158A4342604168421570
:10144000914341604168D2011143416041685200BB
:1014500091434160416852009143416041685200AC
:10146000914341604168520091434160416852009C
:10147000914341604168520091434160416852008C
:101480009143416041680215114341604168421433
:1014900011434160F0BDFFE704484169FF2201327A
:1014A00011434161F6E70000005800400008004881
:1014B000F0B587B014216846FEF72BFF1C4842693F
:1014C0000121C9040A43426142690A400592426906
:1014D00089100A43426142690A4005924269490003
:1014E0000A4342614069134C0840134F05900022A3
:1014F00021463846FFF7CCF80094002601240296D6
:101500006946384603960194FEF7E8FF0925062050
:101510006D046A4661C269463846FEF7DFFF6A46D7
:1015200070C26946A802FEF7D9FF07B0F0BD0000FF
:1015300000100240E10300000008004810B5134805
:1015400011490160124941600021816001614161DE
:1015500081610122C161C2600162FFF7EFF80028DA
:1015600001D072B6FEE700210848FFF79DF8002879
:1015700001D072B6FEE700210448FFF7BAF8002850
:1015800001D072B6FEE710BD0058004010000020E8
:101590005D3E302010B511480F490160FF21053133
:1015A000416000210322816012020161C2600122B8
:1015B0004161520282610162416208228162072315
:1015C000C261C36242630163FFF764FD002801D07A
:1015D00072B6FEE710BD0000003800406400002035
:1015E00010B5134811490160012109074160091133
:1015F0008160002101730122026141615203826115
:101600000162A0224162C2610246816220321173EE
:10161000912292000263416351008163FFF7FAFD5A
:10162000002801D072B6FEE710BD00000040024065
:10163000C8000020FEE77047704710B5FFF70AF9B1
:1016400010BD30B599B034216846FEF762FE002423
:101650000D940E940F941C2111A81094FEF759FEBE
:101660002220009001200390089002251020099567
:101670000490C0020A9040010B900C946846FFF75A
:1016800007FB002801D072B6FEE707200D900F94EB
:1016900001210E9510940DA8FFF73EFA002801D005
:1016A00072B6FEE7012040041190179411A8FFF7CD
:1016B000A3F9002801D072B6FEE719B030BD70471B
:1016C00070B5044600200F25014601238E002A46EE
:1016D000B240224202D01A468A401043491C0829CF
:1016E000F4D370BD01214030018000210180818050
:1016F00001820846704700004030034902888A434F
:10170000028000207047000080BF0000F8B5040C84
:101710008BB2264682B25E430D0C1046370C5843FE
:10172000360480190021794116466E43370C360481
:101730008019794126466E438919F8BD8307FF2237
:10174000DB0E9A408907090E9940002808DB8308C0
:1017500009489B001B18186890430843186070479D
:101760000007000F0838830804489B001B18D8693D
:1017700090430843D861704700E400E000ED00E0CA
:1017800096B0FFF76FF8FFF75CFFFFF791FEFFF7EA
:10179000D5FEFFF7FFFEFFF723FF9C489A49016043
:1017A0000821416002218160016100218161C161E4
:1017B0000162FFF7B7F8002801D072B6FEE7944F38
:1017C00078690125ED0428437861786928401490F0
:1017D00078696E1030437861786930401490786988
:1017E0002843786114228B496846FEF7BBFC8A4C7B
:1017F00069462046FEF772FE86491422143105A878
:10180000FEF7B0FC05A98548FEF768FE8149142261
:1018100028310AA8FEF7A6FC0AA98048FEF75EFE5A
:10182000012291037D48FEF733FF012291037B489B
:10183000FEF72EFF774914223C310FA8FEF792FCE9
:101840000FA92046FEF74AFE012211462046FEF768
:101850001FFF606A291188436062616A68118143D1
:101860006162606AA91188436062606A4910084336
:101870006062606AC90288436062606A4910084316
:101880006062606A4A1090436062606A8A10104326
:101890006062F8690843F861614802691C231A43D1
:1018A0000261036901221343036103690224234394
:1018B000036103690424A3430361046908239C436F
:1018C0000461036910242343036103692024A343B3
:1018D0000361046940239C430461046980239C43A1
:1018E0000461036984152343036103694415234399
:1018F000036103690415234303610369C41423438B
:10190000036103698414A343036103694414A3437B
:101910000361046903149C4304610369C413A34372
:10192000036104698B119C43046104694B111C43DE
:1019300004610469B44304610469AC43046104694B
:101940008F10BC43046104694F10BC4304610469F7
:101950000C43046104694F00BC43046102604468A5
:101960001443446042680224A24342604268042453
:10197000A243426042680824224342604268102425
:10198000A2434260426820242243426042684024CD
:101990002243426044688022944344604468821534
:1019A00094434460446842159443446042688C11F7
:1019B0002243426042689A4342604268B2434260B6
:1019C0004268AA43426042688B109A434260426870
:1019D0004B109A43426042688A43426041689A00D1
:1019E000914341604168021591434160416842144E
:1019F00011434160084C8025606928436061FFF70E
:101A0000D5FCFFF7B1FCF7E7005C00400C010020BB
:101A100000100240241A0008000800480004004892
:101A200000580040C003000001000000000000005A
:101A3000000000000000000000280000120000006C
:101A40000000000000000000000000000040000056
:101A50000100000000000000000000000000000085
:101A60000100000001000000000000000000000074
:101A70000000000002030405060708090A0B0C0D0C
:101A80000E0F10100102030405060708090A0B0CCB
:101A90000D0E0F1000000000000000000102030402
:101AA00006070809C41A0008000000201000000002
:101AB00004010008D41A000810000020500A000099
:101AC00020010008010000000400000000000000E8
:041AD00000127A0086
:04000005080000C12E
:00000001FF
